:1000000004308A00852C0000FF00030E8301A1004C
:100010000A08A0008A010408A2007708A300780853
:10002000A4007908A5007A08A60003170D08031399
:10003000A70003170F080313A80003170C080313E6
:10004000A90003170E080313AA00831383120B1EC3
:100050002B288B1856288C308400001C31280C1853
:1000600059288B1E35280B195C2822088400230888
:10007000F7002408F8002508F9002608FA002708E8
:1000800003178D000313280803178F000313290893
:1000900003178C0003132A0803178E00031320088C
:1000A0008A00210E8300FF0E7F0E09008A110A12BA
:1000B0005A2A8A110A127B2B8A110A12702B831674
:1000C0000C108511831285118316051283120512F7
:1000D0008316851283128512831605138312051366
:1000E0000800591875280612762806168316061277
:1000F0008312D9187D2886127E28861683168612CA
:1001000083125919852806138628061783160613A5
:100110008312D9198D2886138E2886178316861385
:100120000000831286158316861196288312861185
:100130008316861183120800831686118610061115
:1001400083128610831686100616861606178617E3
:100150008312061583160611000083128615831676
:10016000861100008312DA0183160616003083120E
:10017000061A0130DA048316861600308312861AB6
:100180000130F7000310F70D7708DA04831606171D
:1001900000308312061B0130F700F70DF70DFC301D
:1001A000F7057708DA048316861700308312861B5A
:1001B0000130F700F70DF70DF70DF830F705770868
:1001C000DA045A08F8007808D900861183168611D7
:1001D0000000831286158316861100008312DA014F
:1001E0008316061600308312061A0130DA048316CD
:1001F000861600308312861A0130F7000310F70DBF
:100200007708DA048316061700308312061B0130C4
:10021000F700F70DF70DFC30F7057708DA048316C1
:10022000861700308312861B0130F700F70DF70D9B
:10023000F70DF830F7057708DA045A08F80078085F
:10024000D8008611831686110612861206138613AD
:100250008312590EF700F030F70577085804F800BC
:100260007808D800D81F36298316A428D608031D7D
:100270003B2986103C2986148316861000008312C1
:10028000061183160611000083128611831686114B
:100290008312570ED8000F30D8055808D9007120A6
:1002A00057080F39D800D900712008005108073AC3
:1002B000031964290B3A03197929063A0319942979
:1002C000023A0319AA29AF290130D200D300530BF7
:1002D0006A296D294030D4006E29D40101305202C0
:1002E000D40754088038D500D6015508D7009C2083
:1002F000B429D6010130D7009C200230D200523000
:10030000840083130008031993290130F800F701D2
:10031000F70B8829F80B87294A30F700F70B8E294D
:100320009129800B8529B4290130D2000230D300F5
:10033000530B9B299E294030D4009F29D4010130C2
:100340005202D40754088038D500D6015508D7008A
:100350009C20B429D6011030D7009C20B42901304C
:10036000D6005108D7009C2008000B08C1008B1351
:10037000831603178C170C1400000000831203135C
:10038000C11B8B1703170C087F390319092A0313A4
:10039000C10003170D080313C20003170F0803134E
:1003A000C3004108D1005621420803178D000313F2
:1003B000430803178F0003130B08C4008B13831625
:1003C00003178C170C140000000083120313C41BC6
:1003D0008B1703170C0D0E0D7F390319092A031310
:1003E000C10003170D080313C20003170F080313FE
:1003F000C3004108D1005621420803178D000313A2
:10040000430803178F008D0A03198F0A0313B529B8
:100410000317031308008318102A5930840083132C
:10042000F701F801F901FA01D901DA01DB01DC0178
:10043000580857045604550403194E2A2030DD008D
:100440000310D10DD20DD30DD40DD90DDA0DDB0D66
:10045000DC0D58085C02031D372A57085B02031D98
:10046000372A56085A02031D372A55085902031C19
:10047000482A5508D9025608031C560FDA025708B5
:10048000031C570FDB025808031C580FDC0203142F
:10049000F70DF80DF90DFA0DDD0B202A5908800033
:1004A000840A5A088000840A5B088000840A5C0879
:1004B000800008005F20643003178D0003308F0038
:1004C0000313B5213108C4003008C3002F08C2004F
:1004D0002E08C100C801C701C6010A30C50020307E
:1004E000CD00C901CA01CB01CC014408FA00430880
:1004F000F9004208F8004108F7000310771C8E2A23
:100500004508C90746080318460FCA0747080318D5
:10051000470FCB0748080318480FCC07CC0CCB0C6F
:10052000CA0CC90CFA0CF90CF80CF70CCD0B7D2A8F
:100530007A08C4007908C3007808C2007708C100AF
:100540006A3003178D0003308F0003100730031348
:10055000C5000B08C6008B13831603178C170C14E9
:100560000000000083120313C61B8B170318E02A38
:1005700003170C087F390313C60003170D08031374
:10058000C70003170F080313C8004608D1005621FF
:10059000470803178D000313480803178F00031340
:1005A0000B08C9008B13831603178C170C1400005B
:1005B000000083120313C91B8B17C50BE02AFF2A07
:1005C00003170C0D0E0D7F390313C60003170D081A
:1005D0000313C70003170F080313C8004608D10010
:1005E0005621470803178D000313480803178F008F
:1005F0008D0A03198F0A03100313C50BA92A413072
:1006000084004408C8004308C7004208C6004108E7
:10061000C5000408C9003B30D0009A30CF00CA3072
:10062000CE00CD010A30CB00831445308400831303
:100630004808D4004708D3004608D2004508D10036
:100640005008D8004F08D7004E08D6004D08D500F6
:100650000B227808F708031D402B4B08013A0319B9
:10066000402B49080319412B0F394B0203193A2B30
:100670000318462BC91B462B491B412B2030422B0C
:10068000C9013030F7077708D10056218310500890
:10069000D4004F08D3004E08D2004D08D100D80135
:1006A000D701D6010A30D5000B227A08D00079088C
:1006B000CF007808CE007708CD00CB0B142B5F2B32
:1006C0008B108A110A1235288C23E13665104F3BB6
:1006D00065390A00D3316F39651DA012EC3A00006C
:1006E000B2308100831685138030831285060B118A
:1006F0008A110A1235288E010B308F00DB308E00F4
:100700000130AE070318AF0A0319B00A0319B10A82
:100710000C108A110A123528413265366137F432DD
:100720000A0500008C20E432EC306E3A6500413A54
:10073000F23073050A008C207439E1390000C432AC
:10074000F232633461050A000C226539E531E83084
:1007500000000A05493DF13AE932723261050A00AA
:100760008C24FA38F5346539E43000000C000C00B4
:100770002830B4000C30B5000130B6000630B700A8
:1007800086118316861183128610831686108312B3
:100790000611831606110612861206138613861199
:1007A000861006110F308312D2005230840083135A
:1007B00000080319E92B0130F800F701F70BDE2BD5
:1007C000F80BDD2B4A30F700F70BE42BE72B800BFF
:1007D000DB2B0130B3003308033C031C102CAB01AE
:1007E0008B1BAB178B130330D9007120AB1B8B17FE
:1007F0000530D200523084008313000803190E2CF8
:100800000130F800F701F70B032CF80B022C4A30EB
:10081000F700F70B092C0C2C800B002CB30AEB2BE8
:10082000AB018B1BAB178B130230D9007120AB1BB4
:100830008B170530D200523084008313000803194F
:100840002F2C0130F800F701F70B242CF80B232C88
:100850004A30F700F70B2A2C2D2C800B212CB301EA
:100860003308033C031C462C3430330784008313C5
:100870000008B800AB018B1BAB178B13D6013808EF
:10088000D7009C20AB1B8B17B30A302C8A110A129D
:10089000AF2CB8018C1E4A2C1A08F8007808FA0010
:1008A000FA080319802CB80AB71E5C2C37185C2C88
:1008B0007A08203C03186C2C3714371B662C35083B
:1008C00084008313361883177A088000B71F802CA2
:1008D000B50AB60B4A2C802C7A08203C03197A2CD6
:1008E0007A08083C0318782C7A080D3C03187A2CF7
:1008F000F8017C2C0130F800F808031D4A2C5C2C10
:100900003808F8008A110A12FA2C03081F398300EC
:10091000613083168F000F080317871119300313F6
:100920009900A6309800903083129800B101B00170
:10093000AF01AE01831603170908C03989000313FC
:100940001F129F120030031788008312870188014D
:10095000890183130313AC01AD015F20B82BB630BE
:1009600003178D0003308F000313AB018B1BAB17F4
:100970008B13B521AB1B8B170130831695008113A8
:10098000C03083128B048B1683160C1083120B1647
:10099000831601130108C0390738810035308312EE
:1009A0009000B23081008E010B308F00DB308E0062
:1009B000831603178711193003139900A630980086
:1009C0009030831298008C1AE32CB73003178D00F7
:1009D00003308F000313AB018B1BAB178B13B521B7
:1009E000AB1B8B175F20B301B4013230B500B701E8
:1009F000B601492CF808031DFF2CB401022D78081C
:100A0000B307B40A3208573A0319102D043A0319F0
:100A1000982D173A0319202E053A0319A82E322FC4
:100A200083160C148C30831203178D0003308F0053
:100A300003130B08B3008B13831603178C170C14C6
:100A40000000000083120313B31B8B1703170C085D
:100A50007F3903196D2D0313B30003170D0803131A
:100A6000B40003170F080313B50033080C1E362D0E
:100A70009900340803178D000313350803178F00FE
:100A800003130B08B6008B13831603178C170C1473
:100A90000000000083120313B61B8B1703170C0D05
:100AA0000E0D7F3903196D2D0313B30003170D08C5
:100AB0000313B40003170F080313B50033080C1E0B
:100AC0005F2D9900340803178D00031335080317B1
:100AD0008F008D0A03198F0A182D92308D00033074
:100AE0008F000313AB018B1BAB178B13B521AB1B13
:100AF0008B178316051283120516831605138312AE
:100B000005176430D20052308400831300080319A3
:100B1000972D0130F800F701F70B8C2DF80B8B2D7A
:100B20004A30F700F70B922D952D800B892D332F2E
:100B300083160C149730831203178D0003308F0037
:100B400003130B08B3008B13831603178C170C14B5
:100B50000000000083120313B31B8B1703170C084C
:100B60007F390319F52D0313B30003170D08031381
:100B7000B40003170F080313B50033080C1EBE2D75
:100B80009900340803178D000313350803178F00ED
:100B900003130B08B6008B13831603178C170C1462
:100BA0000000000083120313B61B8B1703170C0DF4
:100BB0000E0D7F390319F52D0313B30003170D082C
:100BC0000313B40003170F080313B50033080C1EFA
:100BD000E72D9900340803178D0003133508031718
:100BE0008F008D0A03198F0AA02D9B308D000330D2
:100BF0008F000313AB018B1BAB178B13B521AB1B02
:100C00008B1783168511831285158316851283121F
:100C100085166430D2005230840083130008031913
:100C20001F2E0130F800F701F70B142EF80B132ECE
:100C30004A30F700F70B1A2E1D2E800B112E332F82
:100C400083160C149F30831203178D0003308F001E
:100C500003130B08B3008B13831603178C170C14A4
:100C60000000000083120313B31B8B1703170C083B
:100C70007F3903197D2E0313B30003170D080313E7
:100C8000B40003170F080313B50033080C1E462EDB
:100C90009900340803178D000313350803178F00DC
:100CA00003130B08B6008B13831603178C170C1451
:100CB0000000000083120313B61B8B1703170C0DE3
:100CC0000E0D7F3903197D2E0313B30003170D0892
:100CD0000313B40003170F080313B50033080C1EE9
:100CE0006F2E9900340803178D000313350803177E
:100CF0008F008D0A03198F0A282EA4308D0003302F
:100D00008F000313AB018B1BAB178B13B521AB1BF0
:100D10008B1783168511831285158316051383128D
:100D200005176430D2005230840083130008031981
:100D3000A72E0130F800F701F70B9C2EF80B9B2E25
:100D40004A30F700F70BA22EA52E800B992E332FD9
:100D5000A93003178D0003308F0003130B08B30075
:100D60008B13831603178C170C14000000008312DA
:100D70000313B31B8B1703170C087F390319022FBA
:100D80000313B30003170D080313B40003170F0870
:100D90000313B50033080C1ECB2E9900340803173B
:100DA0008D000313350803178F0003130B08B600DB
:100DB0008B13831603178C170C140000000083128A
:100DC0000313B61B8B1703170C0D0E0D7F39031978
:100DD000022F0313B30003170D080313B400031706
:100DE0000F080313B50033080C1EF42E99003408C5
:100DF00003178D000313350803178F008D0A03199D
:100E00008F0AAD2E831603130C14B0308312031710
:100E10008D0003308F000313AB018B1BAB178B13BB
:100E2000B521AB1B8B17831605128312051683168B
:100E30008512831285166430D200523084008313E9
:100E400000080319312F0130F800F701F70B262FA6
:100E5000F80B252F4A30F700F70B2C2F2F2F800B84
:0A0E6000232F332F5F20E32C6300E3
:04400E00E42FFF3F5D
:00000001FF
;PIC16F886
;CRC=D3DE  CREATED="28-feb-25 09:32"
