:1000000001308A00EE2900000A0541326536613769
:10001000F4320A0500000A05C432F2326334610585
:100020000A000A05493DF13AE932723261050A00D7
:100030008A20E432EC306E3A651DA012EC3AA03111
:100040006D0500000A226539E531E8303A102536A1
:100050007510E3360A008A24FA38F5346539E4303D
:100060003A1025367510E3360A050A008316051086
:1000700083120510831685108312851083160511CF
:100080008312051183168511831285110800A701BB
:10009000A801831606168312061E51285730A700A2
:1000A0005828831686168312861E58285330A700B8
:1000B000831606178312061F60284430A80067289D
:1000C000831686178312861F67284130A8008A117D
:1000D0000A12292A0B08B6008B13831603178C17F4
:1000E0000C140000000083120313B61B8B170317B8
:1000F0000C087F390319C0280313B60003170D0835
:100100000313B70003170F080313B80036080C1EBB
:1001100087289900370803178D0003133808031741
:100120008F0003130B08B9008B13831603178C176A
:100130000C140000000083120313B91B8B17031764
:100140000C0D0E0D7F390319C0280313B6000317D9
:100150000D080313B70003170F080313B800360880
:100160000C1EB0289900370803178D0003133808B8
:1001700003178F008D0A03198F0A03136A280317C8
:100180000313080037308400831300080319D628AE
:100190000130F800F701F70BCB28F80BCA284A30DA
:1001A000F700F70BD128D428800BC82808002908AD
:1001B000573A0319E228133A0319F828053A0319A4
:1001C000182938292F1CEB28043003178D00003024
:1001D0008F0003136A202F10831685108312851455
:1001E00083168511831285156430B700C220392922
:1001F0002F1C01290B3003178D0000308F000313D3
:100200006A202F108316051083120514831685119A
:10021000831285152E08B600B60AB60303191429F1
:10022000FF30B700C2200D292D08B700C2203929A0
:100230002F1C2129113003178D0000308F0003136C
:100240006A202F10831685108312851483160511DA
:10025000831205152E08B600B60AB6030319342911
:10026000FF30B700C2202D292D08B700C220392940
:1002700036208A110A12A32A0B08B7008B138316A3
:1002800003178C170C140000000083120313B71B14
:100290008B170318742903170C087F390313B70051
:1002A00003170D080313B80003170F080313B90051
:1002B00037080C1E59299900380803178D000313BD
:1002C000390803178F0003130B08BA008B1383162A
:1002D00003178C170C140000000083120313BA1BC1
:1002E0008B17B60B7429942903170C0D0E0D7F394B
:1002F0000313B70003170D080313B80003170F0803
:100300000313B90037080C1E832999003808031716
:100310008D000313390803178F008D0A03198F0A04
:1003200003100313B60B3C290800BE010408BD00EE
:100330003E10831B3E14370EF038B900B907E23E79
:10034000BA00323EBC0037080F39BA07BA07BC07FB
:10035000E93EBB00BB07BB07360E0F39BB07BC0726
:10036000BB0DBC0DBC09BC0D36080F39BC07B90D5F
:100370000730B8000A30BC07BB03031CBB29BB070E
:10038000BA03031CBF29BA07B903031CC329B90761
:10039000B803031CC72938308400831307303D0598
:1003A0003D1384073C30040203193D170008F70091
:1003B000031DE2293D1BE2293D1AEA29BD19E22964
:1003C0002030E529BD153D123030F70777080C1EA7
:1003D000E7299900840A3D1FD229080003081F3924
:1003E0008300613083168F000F08031787111930BF
:1003F00003139900A6309800903083129800FF30C4
:10040000A000AA010430AE004C30AD002F148316BA
:1004100003170908C039890003131F129F12003007
:10042000031788008312870188018901831303134E
:10043000A101A20136208B1683160108C0390738A6
:1004400081000530831290008E018F018E018101A1
:1004500047282708A9002708573C031D3A2AB10856
:10046000031D362A3008053C0318392A2708A9003D
:100470003A2AA9012708533C031D442A0830AE003C
:100480009830AD004430A9002808443C031D6A2A76
:10049000B308031D4F2A3208053C0318612AB1082E
:1004A000031D562A3008053C03185A2A2708573CD2
:1004B0000319612A0430AE004C30AD002808A900B1
:1004C0006A2AB308031D6A2A3208043C031C6A2AFC
:1004D0004130A8002808413C031D862AB508031DA9
:1004E000752A3408053C0318862AB108031D7C2AA6
:1004F0003008053C0318802A2708573C0319862A30
:100500000430AE004C30AD002808A900B108031D2E
:100510009F2A3008053C031C9F2AB308031D9F2A0D
:100520003208053C031C9F2AB508031D9F2A340886
:10053000053C031C9F2A4430A9005330A700A9089A
:1005400003192F14D7280108C33C0318A92A8101D5
:10055000AA0A2A08023C0318FF2AAA011830031726
:100560008D0000308F0003100B300313B6003C21C8
:10057000103084003108B7003008B60095211F30D4
:1005800003178D0000308F00031004300313B600F2
:100590003C21223003178D0000308F0003100A30F9
:1005A0000313B6003C21103084003308B700320832
:1005B000B6009521283003178D0000308F000314FA
:1005C00004300313B6003C212B3003178D0000309C
:1005D0008F0003100C300313B6003C211030840050
:1005E0003508B7003408B6009521323003178D0066
:1005F00000308F00031406300313B6003C21282A74
:02060000630095
:04400E00E42FFF3F5D
:00000001FF
;PIC16F886
;CRC=68B8  CREATED="28-feb-25 11:49"
