:020000040000FA
:100000000C9462000C948A000C948A000C948A0070
:100010000C948A000C948A000C948A000C948A0038
:100020000C948A000C948A000C948A000C948A0028
:100030000C948A000C948A000C948A000C948A0018
:100040000C9426030C948A000C9496030C94700371
:100050000C948A000C948A000C948A000C948A00F8
:100060000C948A000C948A000000000024002700F1
:100070002A0000000000250028002B0000000000DE
:1000800023002600290004040404040404040202DA
:100090000202020203030303030301020408102007
:1000A0004080010204081020010204081020000012
:1000B0000008000201000003040700000000000027
:1000C00000000D0411241FBECFEFD8E0DEBFCDBF6E
:1000D00011E0A0E0B1E0E0E9FDE002C005900D9282
:1000E000A232B107D9F721E0A2E2B1E001C01D922E
:1000F000AE3DB207E1F710E0C2E6D0E004C02197C0
:10010000FE010E94B106C136D107C9F70E94590409
:100110000C94C6060C940000833081F028F48130E2
:1001200099F08230A9F008958730A9F08830C9F09D
:100130008430B1F4809180008F7D03C08091800075
:100140008F7780938000089584B58F7784BD08955C
:1001500084B58F7DFBCF8091B0008F778093B00006
:1001600008958091B0008F7DF9CFCF93DF93282F32
:1001700030E0F901E255FF4F8491F901E656FF4F57
:10018000D491F901EA57FF4FC491CC23A1F081111A
:100190000E948C00EC2FF0E0EE0FFF1FE458FF4FA1
:1001A000A591B491EC91ED2381E090E009F480E019
:1001B000DF91CF91089580E090E0FACF1F93CF9325
:1001C000DF93282F30E0F901E255FF4F8491F901C8
:1001D000E656FF4FD491F901EA57FF4FC491CC2363
:1001E000A9F0162F81110E948C00EC2FF0E0EE0F89
:1001F000FF1FEE58FF4FA591B4918FB7F894EC9183
:10020000111108C0D095DE23DC938FBFDF91CF9111
:100210001F910895DE2BF8CFCF93DF9390E0FC0180
:10022000E656FF4F24918A579F4FFC018491882303
:10023000D1F090E0880F991FFC01E859FF4FA5917C
:10024000B491FC01EE58FF4FC591D49161110EC0DD
:100250009FB7F8948C91E22FE0958E238C932881A0
:10026000E223E8839FBFDF91CF9108958FB7F89481
:10027000EC91E22BEC938FBFF6CF1F93CF93DF93DC
:10028000182FEB0161E00E940C01209739F460E027
:10029000812FDF91CF911F910C94DE00CF3FD105CC
:1002A00011F461E0F5CFE12FF0E0E255FF4FE4916A
:1002B000E33031F140F4E130B1F0E230E1F0C03848
:1002C000D1057CF7E4CFE73029F1E83059F1E4308B
:1002D000B1F780918000806280938000D0938B0082
:1002E000C0938A0004C084B5806884BDC7BDDF9117
:1002F000CF911F91089584B5806284BDC8BDF7CFAA
:1003000080918000806880938000D0938900C093A2
:100310008800EDCF8091B00080688093B000C093DA
:10032000B300E5CF8091B00080628093B000C093AD
:10033000B400DDCF3FB7F89480912C0190912D014E
:10034000A0912E01B0912F0126B5A89B05C02F3F8B
:1003500019F00196A11DB11D3FBFBA2FA92F982FEB
:100360008827BC01CD01620F711D811D911D42E0E6
:10037000660F771F881F991F4A95D1F708958F92AE
:100380009F92AF92BF92CF92DF92EF92FF926B015A
:100390007C010E949A014B015C01C114D104E1046B
:1003A000F104B9F00E949A01681979098A099B0938
:1003B000683E73408105910580F321E0C21AD1089F
:1003C000E108F10888EE880E83E0981EA11CB11C9C
:1003D000E4CFFF90EF90DF90CF90BF90AF909F90D1
:1003E0008F900895AF92BF92CF92DF92EF92FF92DB
:1003F0000F931F93CF93DF936C017B018B01040F4D
:10040000151FEB015E01AE18BF08C017D10759F0E8
:100410006991D601ED91FC910190F081E02DC6012A
:100420000995892B79F7C501DF91CF911F910F9124
:10043000FF90EF90DF90CF90BF90AF900895FC01B8
:10044000538D448D252F30E0842F90E0821B930B39
:10045000541710F0CF96089501970895FC01918DDF
:10046000828D981761F0A28DAE0FBF2FB11D5D96E2
:100470008C91928D9F5F9F73928F90E008958FEF84
:100480009FEF0895FC01918D828D981731F0828D38
:10049000E80FF11D858D90E008958FEF9FEF08958F
:1004A000FC01918D228D892F90E0805C9F4F821BF3
:1004B00091098F739927089580E391E00E9450027B
:1004C00021E0892B09F420E0822F089580E090E05C
:1004D000892B29F00E945C0281110C940000089580
:1004E000FC01A48DA80FB92FB11DA35ABF4F2C91A9
:1004F000848D90E001968F739927848FA689B789A0
:100500002C93A089B1898C91837080648C93938D96
:10051000848D981306C00288F389E02D80818F7D39
:1005200080830895EF92FF920F931F93CF93DF93F1
:10053000EC0181E0888F9B8D8C8D98131AC0E8891F
:10054000F989808185FF15C09FB7F894EE89FF89EE
:100550006083E889F98980818370806480839FBF8C
:1005600081E090E0DF91CF911F910F91FF90EF908C
:100570000895F62E0B8D10E00F5F1F4F0F7311279C
:10058000E02E8C8D8E110CC00FB607FCFACFE889D7
:10059000F989808185FFF5CFCE010E947002F1CFED
:1005A000EB8DEC0FFD2FF11DE35AFF4FF0829FB74B
:1005B000F8940B8FEA89FB8980818062CFCFCF933B
:1005C000DF93EC01888D8823B9F0AA89BB89E8897B
:1005D000F9898C9185FD03C0808186FD0DC00FB621
:1005E00007FCF7CF8C9185FFF2CF808185FFEDCF9F
:1005F000CE010E947002E9CFDF91CF91089560E0B3
:1006000082E00E94DE0060E083E00E94DE0060E0A5
:1006100084E00E94DE0060E085E00E94DE0070E081
:1006200060E08EE00E943D0170E060E08FE00C949D
:100630003D01FC0101900020E9F73197AF01481B13
:10064000590BBC0180E391E00C94F2011F920F92D0
:100650000FB60F9211242F933F938F939F93AF93D5
:10066000BF938091280190912901A0912A01B09116
:100670002B013091270123E0230F2D3758F50196E8
:10068000A11DB11D2093270180932801909329017A
:10069000A0932A01B0932B0180912C0190912D0100
:1006A000A0912E01B0912F010196A11DB11D809343
:1006B0002C0190932D01A0932E01B0932F01BF9197
:1006C000AF919F918F913F912F910F900FBE0F90FF
:1006D0001F90189526E8230F0296A11DB11DD2CFB9
:1006E0001F920F920FB60F9211242F933F934F93A7
:1006F0005F936F937F938F939F93AF93BF93EF938A
:10070000FF9380E391E00E947002FF91EF91BF910F
:10071000AF919F918F917F916F915F914F913F9199
:100720002F910F900FBE0F901F9018951F920F9250
:100730000FB60F9211242F938F939F93EF93FF93F4
:10074000E0914001F09141018081E0914601F091FA
:10075000470182FD1BC09081809149018F5F8F739B
:1007600020914A01821741F0E0914901F0E0E05DFB
:10077000FE4F958F80934901FF91EF919F918F914B
:100780002F910F900FBE0F901F9018958081F4CF7E
:10079000CF92DF92EF92FF920F931F93E82FF92FE2
:1007A00005C0015011092109310961F19081962399
:1007B0009417B9F305C0015011092109310911F14C
:1007C000908196239413F7CFC12CD12CE12CF12CDE
:1007D0000AC08FEFC81AD80AE80AF80A0C151D05D6
:1007E0002E053F0579F080818623841791F36C2DC7
:1007F0007D2D8E2D9F2D1F910F91FF90EF90DF90FB
:10080000CF90089560E070E080E090E01F910F913C
:10081000FF90EF90DF90CF900895CF93DF93E0E3C8
:10082000F1E01382128288EE93E0A0E0B0E08483CE
:100830009583A683B78384E091E09183808385ECE0
:1008400090E09587848784EC90E09787868780EC9A
:1008500090E0918B808B81EC90E0938B828B82EC8B
:1008600090E0958B848B86EC90E0978B868B118E35
:10087000128E138E148ECDECD1E088E090E09D8333
:100880008C8389E090E09F838E8360E088E00E9403
:100890000C0161E08E810E940C01188A87EE93E0C2
:1008A000A0E0B0E08C879D87AE87BF87DF91CF91B6
:1008B0000895CF93DF93CDB7DEB7A1970FB6F89425
:1008C000DEBF0FBECDBF789484B5826084BD84B591
:1008D000816084BD85B5826085BD85B5816085BD3B
:1008E00080916E00816080936E00109281008091F3
:1008F000810082608093810080918100816080937B
:100900008100809180008160809380008091B1009F
:1009100084608093B1008091B00081608093B000CA
:1009200080917A00846080937A0080917A0082605E
:1009300080937A0080917A00816080937A00809120
:100940007A00806880937A001092C100E0914001A3
:10095000F091410182E08083E0913C01F0913D0102
:100960001082E0913E01F0913F018FEC8083109264
:100970004801E0914401F091450186E08083E091D7
:100980004201F0914301808180618083E0914201C6
:10099000F0914301808188608083E0914201F09171
:1009A0004301808180688083E0914201F09143019E
:1009B00080818F7D808361E08EE00E940C0161E088
:1009C0008FE00E940C0161E082E00E940C0161E076
:1009D00083E00E940C0161E084E00E940C0161E070
:1009E00085E00E940C0160E086E00E940C0160E05E
:1009F00087E00E940C0193E0A92EB12C23E2222E65
:100A0000312C3AE0432E512C612C712C40E0842E85
:100A100040E0942E1092D5011092D6011092D70189
:100A20001092D80160E08091D3010E94DE00C501E0
:100A30000197F1F761E08091D3010E94DE00C101CE
:100A40000197F1F760E08091D3010E94DE00C501BB
:100A50000197F1F78091D1019091D2019927FC0182
:100A6000E656FF4F6491FC01EA57FF4FE491F0E036
:100A7000EE0FFF1FE458FF4F8591949100EF19E4AA
:100A800022E030E0462F0E94C8039B01AC012115F3
:100A900031054105510529F02F5F3F4F4F4F5F4F03
:100AA0005F702093D5013093D6014093D7015093C6
:100AB000D801A4E6B0E00E94A6062AEF36E140E0A5
:100AC00050E00E94870669017A0169E170E080E0E8
:100AD00090E00E94BF01C0922301D0922401E092D5
:100AE0002501F0922601F7FE73C06DE280E391E0EC
:100AF0000E94920222273327A9012C193D094E0991
:100B00005F0919A2CE0181967C01CA01B901A30136
:100B100092010E946506605DF70162937F012115D5
:100B200031054105510589F7E114F10419F0C701B8
:100B30000E94190382E191E00E94190385E191E08E
:100B40000E94190380E391E00E945002892B91F0EA
:100B500080E391E00E942E028C34910509F49BC041
:100B60000CF04CC08234910509F474C086349105B0
:100B700009F44FC066E970E080E090E00E94BF0198
:100B80000E94FF0286E00E94B50021E0009709F470
:100B900020E020932201892B09F08BC087E00E947E
:100BA000B50021E0892B09F420E0209322018091F7
:100BB0002201882309F475C087E00E94B50021E076
:100BC000892B09F420E0209322010E94FF02EFCF3D
:100BD000A701960119A2CE0181967C01CA01B90133
:100BE000A30192010E946506605DF70162937F0197
:100BF000211531054105510589F796CF82359105BB
:100C000009F443C08335910509F0B4CF0E94FF0277
:100C1000B1CF8091230190912401A0912501B09141
:100C200026010697A105B1050CF4A4CF61E083E08D
:100C30000E94DE0060E082E00E94DE006FEF70E064
:100C40008EE00E943D0161E085E00E94DE0060E0F0
:100C500084E013C061E082E00E94DE0060E083E097
:100C60000E94DE006FEF70E08EE00E943D0161E0C7
:100C700084E00E94DE0060E085E00E94DE006FEF0D
:100C800070E08FE00E943D0175CF60E083E00E943C
:100C9000DE0061E0D0CF60E082E00E94DE0061E033
:100CA000DECF88E191E00E94190385E191E00E9486
:100CB00019038114910409F4ADCE0E945C028823CB
:100CC00009F4A8CE0E940000A5CEA1E21A2EAA1B0C
:100CD000BB1BFD010DC0AA1FBB1FEE1FFF1FA217EC
:100CE000B307E407F50720F0A21BB30BE40BF50BE9
:100CF000661F771F881F991F1A9469F76095709572
:100D0000809590959B01AC01BD01CF010895052E02
:100D100097FB1EF400940E949E0657FD07D00E9488
:100D2000650607FC03D04EF40C949E065095409542
:100D3000309521953F4F4F4F5F4F08959095809587
:100D4000709561957F4F8F4F9F4F08950E94B70612
:100D5000A59F900DB49F900DA49F800D911D11240F
:100D60000895EE0FFF1F0590F491E02D0994A29FC6
:100D7000B001B39FC001A39F700D811D1124911D6F
:100D8000B29F700D811D1124911D0895F894FFCF1D
:100D9000000000009202F2011F02DF0250022E0248
:100DA0004202636D000D0A005265696E6963696FE6
:020DB000000041
:107E0000112484B714BE81FFF0D085E080938100F7
:107E100082E08093C00088E18093C10086E0809377
:107E2000C20080E18093C4008EE0C9D0259A86E02C
:107E300020E33CEF91E0309385002093840096BBD3
:107E4000B09BFECF1D9AA8958150A9F7CC24DD24C4
:107E500088248394B5E0AB2EA1E19A2EF3E0BF2EE7
:107E6000A2D0813461F49FD0082FAFD0023811F036
:107E7000013811F484E001C083E08DD089C08234E0
:107E800011F484E103C0853419F485E0A6D080C0E4
:107E9000853579F488D0E82EFF2485D0082F10E0AE
:107EA000102F00270E291F29000F111F8ED06801E7
:107EB0006FC0863521F484E090D080E0DECF843638
:107EC00009F040C070D06FD0082F6DD080E0C81688
:107ED00080E7D80618F4F601B7BEE895C0E0D1E017
:107EE00062D089930C17E1F7F0E0CF16F0E7DF06D8
:107EF00018F0F601B7BEE89568D007B600FCFDCFD4
:107F0000A601A0E0B1E02C9130E011968C91119780
:107F100090E0982F8827822B932B1296FA010C0160
:107F200087BEE89511244E5F5F4FF1E0A038BF0790
:107F300051F7F601A7BEE89507B600FCFDCF97BE46
:107F4000E89526C08437B1F42ED02DD0F82E2BD052
:107F50003CD0F601EF2C8F010F5F1F4F84911BD097
:107F6000EA94F801C1F70894C11CD11CFA94CF0C13
:107F7000D11C0EC0853739F428D08EE10CD085E9AC
:107F80000AD08FE07ACF813511F488E018D01DD067
:107F900080E101D065CF982F8091C00085FFFCCF94
:107FA0009093C60008958091C00087FFFCCF809118
:107FB000C00084FD01C0A8958091C6000895E0E648
:107FC000F0E098E1908380830895EDDF803219F02E
:107FD00088E0F5DFFFCF84E1DECF1F93182FE3DFCA
:107FE0001150E9F7F2DF1F91089580E0E8DFEE27F6
:047FF000FF270994CA
:027FFE00040479
:00000001FF
