:100000000C9462000C948A000C948A000C948A0070
:100010000C948A000C948A000C948A000C948A0038
:100020000C948A000C948A000C948A000C948A0028
:100030000C948A000C948A000C948A000C948A0018
:100040000C94C6020C948A000C9494020C946E02D8
:100050000C948A000C948A000C948A000C948A00F8
:100060000C948A000C948A000000000024002700F1
:100070002A0000000000250028002B0000000008D6
:10008000000201000003040700000000000000005F
:1000900000000000230026002900040404040404D6
:1000A0000404020202020202030303030303010227
:1000B00004081020408001020408102001020408F6
:1000C0001020550311241FBECFEFD8E0DEBFCDBFF7
:1000D00011E0A0E0B1E0EEE9FBE002C005900D9276
:1000E000AA32B107D9F721E0AAE2B1E001C01D921E
:1000F000A73FB207E1F710E0C2E6D0E004C02197C5
:10010000FE010E94B805C136D107C9F70E94A103BC
:100110000C94CD050C940000AF92BF92CF92DF9269
:10012000EF92FF920F931F93CF93DF936C017B01AC
:100130008B01040F151FEB015E01AE18BF08C0173D
:10014000D10759F06991D601ED91FC910190F081B0
:10015000E02DC6010995892B79F7C501DF91CF9173
:100160001F910F91FF90EF90DF90CF90BF90AF90D5
:100170000895FC01538D448D252F30E0842F90E0AD
:10018000821B930B541710F0CF9608950197089592
:10019000FC01918D828D981761F0A28DAE0FBF2F5B
:1001A000B11D5D968C91928D9F5F9F73928F90E0B1
:1001B00008958FEF9FEF0895FC01918D828D981720
:1001C00031F0828DE80FF11D858D90E008958FEF5D
:1001D0009FEF0895FC01918D228D892F90E0805C26
:1001E0009F4F821B91098F739927089589E491E0AD
:1001F0000E94EA0021E0892B09F420E0822F089573
:1002000080E090E0892B29F00E94F60081110C9487
:1002100000000895FC01A48DA80FB92FB11DA35AA9
:10022000BF4F2C91848D90E001968F739927848F16
:10023000A689B7892C93A089B1898C918370806439
:100240008C93938D848D981306C00288F389E02DDA
:1002500080818F7D80830895EF92FF920F931F938B
:10026000CF93DF93EC0181E0888F9B8D8C8D981369
:100270001AC0E889F989808185FF15C09FB7F89475
:10028000EE89FF896083E889F989808183708064C1
:1002900080839FBF81E090E0DF91CF911F910F910C
:1002A000FF90EF900895F62E0B8D10E00F5F1F4F1B
:1002B0000F731127E02E8C8D8E110CC00FB607FC2A
:1002C000FACFE889F989808185FFF5CFCE010E94B8
:1002D0000A01F1CFEB8DEC0FFD2FF11DE35AFF4F1B
:1002E000F0829FB7F8940B8FEA89FB898081806246
:1002F000CFCFCF93DF93EC01888D8823B9F0AA8903
:10030000BB89E889F9898C9185FD03C0808186FDD0
:100310000DC00FB607FCF7CF8C9185FFF2CF80811F
:1003200085FFEDCFCE010E940A01E9CFDF91CF9189
:10033000089590E0FC01E458FF4F2491FC01E25540
:10034000FF4F3491FC01E656FF4FE491EE23C9F0D4
:10035000222339F0233001F1A8F4213019F12230A1
:1003600029F1F0E0EE0FFF1FEE58FF4FA591B49179
:100370008FB7F894EC91611126C030953E233C93E1
:100380008FBF08952730A9F02830C9F0243049F7ED
:10039000809180008F7D03C0809180008F77809353
:1003A0008000DFCF84B58F7784BDDBCF84B58F7DB0
:1003B000FBCF8091B0008F778093B000D2CF809137
:1003C000B0008F7DF9CF3E2BDACFCF93DF9390E053
:1003D000FC01E255FF4F249186569F4FFC0184910A
:1003E0008823D1F090E0880F991FFC01E859FF4F56
:1003F000A591B491FC01EE58FF4FC591D4916111C4
:100400000EC09FB7F8948C91E22FE0958E238C93C9
:100410002881E223E8839FBFDF91CF9108958FB7B2
:10042000F894EC91E22BEC938FBFF6CF3FB7F894A2
:1004300080912F0190913001A0913101B091320152
:1004400026B5A89B05C02F3F19F00196A11DB11D2F
:100450003FBFBA2FA92F982F8827BC01CD01620F6B
:10046000711D811D911D42E0660F771F881F991F26
:100470004A95D1F708958F929F92AF92BF92CF92F3
:10048000DF92EF92FF926B017C010E9416024B01FA
:100490005C01C114D104E104F104B9F00E94160218
:1004A000681979098A099B09683E7340810591059D
:1004B00080F321E0C21AD108E108F10888EE880E25
:1004C00083E0981EA11CB11CE4CFFF90EF90DF9059
:1004D000CF90BF90AF909F908F9008951F920F92F2
:1004E0000FB60F9211242F933F934F935F936F9307
:1004F0007F938F939F93AF93BF93EF93FF9389E481
:1005000091E00E940A01FF91EF91BF91AF919F91FD
:100510008F917F916F915F914F913F912F910F90AC
:100520000FBE0F901F9018951F920F920FB60F924B
:1005300011242F938F939F93EF93FF93E091590191
:10054000F0915A018081E0915F01F091600182FD9C
:100550001BC09081809162018F5F8F732091630136
:10056000821741F0E0916201F0E0E75BFE4F958F6A
:1005700080936201FF91EF919F918F912F910F9046
:100580000FBE0F901F9018958081F4CF1F920F928D
:100590000FB60F9211242F933F938F939F93AF9396
:1005A000BF9380912B0190912C01A0912D01B091CE
:1005B0002E0130912A0123E0230F2D3758F50196A3
:1005C000A11DB11D20932A0180932B0190932C0132
:1005D000A0932D01B0932E0180912F0190913001B5
:1005E000A0913101B09132010196A11DB11D8093FE
:1005F0002F0190933001A0933101B0933201BF914C
:10060000AF919F918F913F912F910F900FBE0F90BF
:100610001F90189526E8230F0296A11DB11DD2CF79
:10062000CF92DF92EF92FF920F931F93E82FF92F53
:1006300005C0015011092109310961F1908196230A
:100640009417B9F305C0015011092109310911F1BD
:10065000908196239413F7CFC12CD12CE12CF12C4F
:100660000AC08FEFC81AD80AE80AF80A0C151D0547
:100670002E053F0579F080818623841791F36C2D38
:100680007D2D8E2D9F2D1F910F91FF90EF90DF906C
:10069000CF90089560E070E080E090E01F910F91AE
:1006A000FF90EF90DF90CF900895CF93DF93E9E430
:1006B000F1E01382128288EE93E0A0E0B0E0848340
:1006C0009583A683B78388E191E09183808385EC4D
:1006D00090E09587848784EC90E09787868780EC0C
:1006E00090E0918B808B81EC90E0938B828B82ECFD
:1006F00090E0958B848B86EC90E0978B868B118EA7
:10070000128E138E148EC6EED1E08EE090E09D83A3
:100710008C838FE090E09F838E8360E08EE00E9468
:10072000E50161E08E810E94E501188A87EE93E081
:10073000A0E0B0E08C879D87AE87BF87DF91CF9127
:100740000895CF93DF93CDB7DEB7A3970FB6F89494
:10075000DEBF0FBECDBF789484B5826084BD84B502
:10076000816084BD85B5826085BD85B5816085BDAC
:1007700080916E00816080936E0010928100809164
:1007800081008260809381008091810081608093EC
:100790008100809180008160809380008091B10011
:1007A00084608093B1008091B00081608093B0003C
:1007B00080917A00846080937A0080917A008260D0
:1007C00080937A0080917A00816080937A00809192
:1007D0007A00806880937A001092C100E3E3F1E030
:1007E0008AE090E0819391930A9688379105D1F73A
:1007F00074E1C72E71E0D72EE0E0EE2EE1E0FE2E90
:10080000F7011081F2E0EF0EF11C61E0812F0E94F0
:10081000E50160E0812F0E949901CE14DF0481F789
:10082000E0915901F0915A0182E08083E0915501F5
:10083000F09156011082E0915701F09158018FEC30
:10084000808310926101E0915D01F0915E0186E08C
:100850008083E0915B01F0915C0180818061808305
:10086000E0915B01F0915C01808188608083E09180
:100870005B01F0915C01808180688083E0915B0185
:10088000F0915C0180818F7D808361E070E080E089
:1008900090E00E943B0253E0252E312C6AE0862E28
:1008A000912CA12CB12C1092EE011092EF0110921C
:1008B000F0011092F10160E08091EC010E94990139
:1008C000C1010197F1F761E08091EC010E9499016B
:1008D00083E290E00197F1F760E08091EC010E94E3
:1008E0009901C1010197F1F78091EA019091EB0123
:1008F0009927FC01E255FF4F6491FC01E656FF4F3A
:10090000E491F0E0EE0FFF1FE057FF4F85919491C7
:1009100000EF19E422E030E0462F0E9410032B0183
:100920003C01411451046104710439F02FEF421A63
:10093000520A620A720A3FE073224092EE0150921C
:10094000EF016092F0017092F10169E170E080E0E6
:1009500090E00E943B02A4E6B0E0A30192010E9455
:10096000AD052AEF36E140E050E00E948E053BA342
:100970002AA32901330F6608770877FE7DC06DE250
:1009800089E491E00E942C0122273327A901241930
:1009900035094609570919A28E010F5D1F4FCA017B
:1009A000B901A50194010E946C05605DF801629394
:1009B0008F01211531054105510589F701151105F3
:1009C00061F001900020E9F73197AF01401B510B16
:1009D000B80189E491E00E948C0042E050E066E2B8
:1009E00071E089E491E00E948C0033E3C32E31E092
:1009F000D32E0AE010E0F601848995892AA13BA153
:100A0000821793070CF061C00A30110509F04AC043
:100A100000E011E0F80180810E5F1F4F61E00E944D
:100A200099016EE170E080E090E00E943B020E15BB
:100A30001F0581F720E0C22E21E0D22EF601808131
:100A4000F2E0CF0ED11C60E00E9499016EE170E0EF
:100A500080E090E00E943B020C151D0579F780E0D4
:100A600090E0892B09F41FCF0E94F600882309F437
:100A70001ACF0E94000017CFA301920119A28E0184
:100A80000F5D1F4FCA01B901A50194010E946C05B9
:100A9000605DF80162938F01211531054105510513
:100AA00089F78CCFF801EE0FFF1FE050FF4F61E098
:100AB00080810E9499010150110922E0C21AD108D7
:100AC0000F3F100709F097CFCACFF801EE0FFF1FB5
:100AD000E050FF4F60E0ECCFA1E21A2EAA1BBB1B37
:100AE000FD010DC0AA1FBB1FEE1FFF1FA217B307FA
:100AF000E407F50720F0A21BB30BE40BF50B661F10
:100B0000771F881F991F1A9469F7609570958095D3
:100B100090959B01AC01BD01CF010895052E97FB77
:100B20001EF400940E94A50557FD07D00E946C0595
:100B300007FC03D04EF40C94A505509540953095D4
:100B400021953F4F4F4F5F4F089590958095709539
:100B500061957F4F8F4F9F4F08950E94BE05A59FBF
:100B6000900DB49F900DA49F800D911D11240895A8
:100B7000EE0FFF1F0590F491E02D0994A29FB001A4
:100B8000B39FC001A39F700D811D1124911DB29FC1
:0E0B9000700D811D1124911D0895F894FFCF62
:100B9E000A000B0002000400030005000600070017
:100BAE0008000900000000002C018C00B90079013A
:0A0BBE00EA00C800DC000D0A000088
:00000001FF
