:100000000C9462000C948A000C948A000C948A0070
:100010000C948A000C948A000C948A000C948A0038
:100020000C948A000C948A000C948A000C948A0028
:100030000C948A000C948A000C948A000C948A0018
:100040000C9472030C948A000C94E2030C94BC038D
:100050000C948A000C948A000C948A000C948A00F8
:100060000C948A000C948A000000000024002700F1
:100070002A0000000000250028002B0000000000DE
:1000800023002600290004040404040404040202DA
:100090000202020203030303030301020408102007
:1000A0004080010204081020010204081020000012
:1000B0000008000201000003040700000000000027
:1000C0000000730511241FBECFEFD8E0DEBFCDBF07
:1000D00011E0A0E0B1E0E0E5FBE002C005900D9288
:1000E000A433B107D9F721E0A4E3B1E001C01D9228
:1000F000A83EB207E1F710E0C2E6D0E004C02197C5
:10010000FE010E94A005C136D107C9F70E94140460
:100110000C94A6050C940000833081F028F4813003
:1001200099F08230A9F008958730A9F08830C9F09D
:100130008430B1F4809180008F7D03C08091800075
:100140008F7780938000089584B58F7784BD08955C
:1001500084B58F7DFBCF8091B0008F778093B00006
:1001600008958091B0008F7DF9CFCF93DF93282F32
:1001700030E0F901E255FF4F8491F901E656FF4F57
:10018000D491F901EA57FF4FC491CC23A1F081111A
:100190000E948C00EC2FF0E0EE0FFF1FE458FF4FA1
:1001A000A591B491EC91ED2381E090E009F480E019
:1001B000DF91CF91089580E090E0FACF1F93CF9325
:1001C000DF93282F30E0F901E255FF4F8491F901C8
:1001D000E656FF4FD491F901EA57FF4FC491CC2363
:1001E000A9F0162F81110E948C00EC2FF0E0EE0F89
:1001F000FF1FEE58FF4FA591B4918FB7F894EC9183
:10020000111108C0D095DE23DC938FBFDF91CF9111
:100210001F910895DE2BF8CFCF93DF9390E0FC0180
:10022000E656FF4F24918A579F4FFC018491882303
:10023000D1F090E0880F991FFC01E859FF4FA5917C
:10024000B491FC01EE58FF4FC591D49161110EC0DD
:100250009FB7F8948C91E22FE0958E238C932881A0
:10026000E223E8839FBFDF91CF9108958FB7F89481
:10027000EC91E22BEC938FBFF6CF1F93CF93DF93DC
:10028000182FEB0161E00E940C01209739F460E027
:10029000812FDF91CF911F910C94DE00CF3FD105CC
:1002A00011F461E0F5CFE12FF0E0E255FF4FE4916A
:1002B000E33031F140F4E130B1F0E230E1F0C03848
:1002C000D1057CF7E4CFE73029F1E83059F1E4308B
:1002D000B1F780918000806280938000D0938B0082
:1002E000C0938A0004C084B5806884BDC7BDDF9117
:1002F000CF911F91089584B5806284BDC8BDF7CFAA
:1003000080918000806880938000D0938900C093A2
:100310008800EDCF8091B00080688093B000C093DA
:10032000B300E5CF8091B00080628093B000C093AD
:10033000B400DDCF3FB7F894809147019091480118
:10034000A0914901B0914A0126B5A89B05C02F3F55
:1003500019F00196A11DB11D3FBFBA2FA92F982FEB
:100360008827BC01CD01620F711D811D911D42E0E6
:10037000660F771F881F991F4A95D1F708958F92AE
:100380009F92AF92BF92CF92DF92EF92FF926B015A
:100390007C010E949A014B015C01C114D104E1046B
:1003A000F104B9F00E949A01681979098A099B0938
:1003B000683E73408105910580F321E0C21AD1089F
:1003C000E108F10888EE880E83E0981EA11CB11C9C
:1003D000E4CFFF90EF90DF90CF90BF90AF909F90D1
:1003E0008F900895AF92BF92CF92DF92EF92FF92DB
:1003F0000F931F93CF93DF936C017B018B01040F4D
:10040000151FEB015E01AE18BF08C017D10759F0E8
:100410006991D601ED91FC910190F081E02DC6012A
:100420000995892B79F7C501DF91CF911F910F9124
:10043000FF90EF90DF90CF90BF90AF900895FC01B8
:10044000538D448D252F30E0842F90E0821B930B39
:10045000541710F0CF96089501970895FC01918DDF
:10046000828D981761F0A28DAE0FBF2FB11D5D96E2
:100470008C91928D9F5F9F73928F90E008958FEF84
:100480009FEF0895FC01918D828D981731F0828D38
:10049000E80FF11D858D90E008958FEF9FEF08958F
:1004A000FC01918D228D892F90E0805C9F4F821BF3
:1004B00091098F73992708958BE491E00E9450026F
:1004C00021E0892B09F420E0822F089580E090E05C
:1004D000892B29F00E945C0281110C940000089580
:1004E000FC01A48DA80FB92FB11DA35ABF4F2C91A9
:1004F000848D90E001968F739927848FA689B789A0
:100500002C93A089B1898C91837080648C93938D96
:10051000848D981306C00288F389E02D80818F7D39
:1005200080830895EF92FF920F931F93CF93DF93F1
:10053000EC0181E0888F9B8D8C8D98131AC0E8891F
:10054000F989808185FF15C09FB7F894EE89FF89EE
:100550006083E889F98980818370806480839FBF8C
:1005600081E090E0DF91CF911F910F91FF90EF908C
:100570000895F62E0B8D10E00F5F1F4F0F7311279C
:10058000E02E8C8D8E110CC00FB607FCFACFE889D7
:10059000F989808185FFF5CFCE010E947002F1CFED
:1005A000EB8DEC0FFD2FF11DE35AFF4FF0829FB74B
:1005B000F8940B8FEA89FB8980818062CFCFCF933B
:1005C000DF93EC01888D8823B9F0AA89BB89E8897B
:1005D000F9898C9185FD03C0808186FD0DC00FB621
:1005E00007FCF7CF8C9185FFF2CF808185FFEDCF9F
:1005F000CE010E947002E9CFDF91CF91089570E0A3
:1006000060E08EE00E943D0170E060E08FE00C94BD
:100610003D01FC0101900020E9F73197AF01481B33
:10062000590BBC018BE491E00C94F2010F931F93E2
:10063000CF93DF93EC018B0182E191E00E940903EB
:1006400060E082E00E94DE0061E083E00E94DE0064
:10065000B8018EE00E943D0161E084E00E94DE006E
:1006600060E085E00E94DE00B8018FE00E943D015D
:10067000BE01DD0F880B990B0E94BF01DF91CF9166
:100680001F910F910C94FF020F931F93CF93DF9351
:10069000EC018B018CE191E00E94090360E083E0B2
:1006A0000E94DE0061E082E00E94DE00B8018EE080
:1006B0000E943D0161E085E00E94DE0060E084E090
:1006C0000E94DE00B8018FE00E943D01BE01DD0FF7
:1006D000880B990B0E94BF01DF91CF911F910F9161
:1006E0000C94FF021F920F920FB60F9211242F93BA
:1006F0003F938F939F93AF93BF93809143019091CA
:100700004401A0914501B09146013091420123E09E
:10071000230F2D3758F50196A11DB11D20934201DD
:100720008093430190934401A0934501B093460107
:100730008091470190914801A0914901B0914A01EF
:100740000196A11DB11D8093470190934801A0938C
:100750004901B0934A01BF91AF919F918F913F9111
:100760002F910F900FBE0F901F90189526E8230F22
:100770000296A11DB11DD2CF1F920F920FB60F92FC
:1007800011242F933F934F935F936F937F938F9396
:100790009F93AF93BF93EF93FF938BE491E00E94FD
:1007A0007002FF91EF91BF91AF919F918F917F91D7
:1007B0006F915F914F913F912F910F900FBE0F90CE
:1007C0001F9018951F920F920FB60F9211242F931E
:1007D0008F939F93EF93FF93E0915B01F0915C0106
:1007E0008081E0916101F091620182FD1BC09081E6
:1007F000809164018F5F8F7320916501821741F0B2
:10080000E0916401F0E0E55BFE4F958F8093640119
:10081000FF91EF919F918F912F910F900FBE0F90AD
:100820001F9018958081F4CF789484B5826084BD40
:1008300084B5816084BD85B5826085BD85B58160E4
:1008400085BD80916E00816080936E001092810062
:10085000809181008260809381008091810081601D
:1008600080938100809180008160809380008091DE
:10087000B10084608093B1008091B000816080936A
:10088000B00080917A00846080937A0080917A0031
:10089000826080937A0080917A00816080937A00F0
:1008A00080917A00806880937A001092C10060E0A5
:1008B0008AE00E940C0160E08BE00E940C0160E085
:1008C0008CE00E940C01E0915B01F0915C0182E000
:1008D0008083E0915701F09158011082E091590115
:1008E000F0915A018FEC808310926301E0915F01D7
:1008F000F091600186E08083E0915D01F0915E01FE
:10090000808180618083E0915D01F0915E01808152
:1009100088608083E0915D01F0915E018081806854
:100920008083E0915D01F0915E0180818F7D808305
:1009300061E08EE00E940C0161E08FE00E940C01FA
:1009400061E082E00E940C0161E083E00E940C0102
:1009500061E084E00E940C0161E085E00E940C01EE
:1009600080E0682E80E0782E8AE00E94B500EC01DD
:1009700090934101809340018CE00E94B5006C018E
:1009800090933F0180933E018BE00E94B5008C0163
:1009900090933D0180933C0189E00E94B5005C0189
:1009A00090933B0180933A0186E00E94B5004C0190
:1009B000909339018093380187E00E94B5007C0153
:1009C000909337018093360188E00E94B5009093A0
:1009D0003501809334018A94892841F584E291E0BD
:1009E0000E9409038091380190913901019731F0FB
:1009F00080913C0190913D01892B41F1809136011C
:100A0000909137016FEF70E0019729F48AE090E050
:100A10000E944403E7CF8091340190913501019702
:100A2000A9F78AE090E00E941603DCCFAA94AB28D5
:100A300039F021E0E216F10419F08130910589F4D2
:100A4000CD2839F4012BF9F4CD2BF9F40E94FF02E3
:100A500008C0CD2B09F56FEF70E08AE090E00E94AE
:100A600016036114710409F47FCF0E945C0288238D
:100A700009F47ACF0E94000077CFEA94EF2829F09A
:100A8000019779F7E8CFCD2BC1F36FEF70E08AE0E3
:100A900090E00E944403E5CF012BC1F68AE291E089
:100AA0000E94090361E083E00E94DE0060E082E0D2
:100AB0000E94DE006FEF70E08EE00E943D0161E079
:100AC00085E00E94DE0060E084E00E94DE006FEFBF
:100AD00070E08FE00E943D0162E370E080E090E012
:100AE0000E94BF01B3CFEBE4F1E01382128288EEE3
:100AF00093E0A0E0B0E084839583A683B78384E08D
:100B000091E09183808385EC90E09587848784ECE5
:100B100090E09787868780EC90E0918B808B81ECCA
:100B200090E0938B828B82EC90E0958B848B86ECAB
:100B300090E0978B868B118E128E138E148E0895F3
:100B4000EE0FFF1F0590F491E02D0994F894FFCF6C
:100B5000000000009202F2011F02DF0250022E028A
:100B60004202495A51554945524441004445524573
:100B7000434841004154524153004144454C414E89
:040B800054450000D8
:00000001FF
