:020000040000FA
:100000000C9462000C948A000C948A000C948A0070
:100010000C948A000C948A000C948A000C948A0038
:100020000C948A000C948A000C948A000C948A0028
:100030000C948A000C948A000C948A000C948A0018
:100040000C9458030C948A000C9426030C9400031F
:100050000C948A000C948A000C948A000C948A00F8
:100060000C948A000C948A000000000024002700F1
:100070002A0000000000250028002B0000000008D6
:10008000000201000003040700000000000000005F
:1000900000000000230026002900040404040404D6
:1000A0000404020202020202030303030303010227
:1000B00004081020408001020408102001020408F6
:1000C0001020E70311241FBECFEFD8E0DEBFCDBF65
:1000D00011E0A0E0B1E0E2EAF0E102C005900D928B
:1000E000A034B107D9F722E0A0E4B1E001C01D922D
:1000F000A131B207E1F710E0C2E6D0E004C02197D9
:10010000FE010E943A08C136D107C9F70E943304A4
:100110000C944F080C940000AF92BF92CF92DF92E4
:10012000EF92FF920F931F93CF93DF936C017B01AC
:100130008B01040F151FEB015E01AE18BF08C0173D
:10014000D10759F06991D601ED91FC910190F081B0
:10015000E02DC6010995892B79F7C501DF91CF9173
:100160001F910F91FF90EF90DF90CF90BF90AF90D5
:100170000895FC01538D448D252F30E0842F90E0AD
:10018000821B930B541710F0CF9608950197089592
:10019000FC01918D828D981761F0A28DAE0FBF2F5B
:1001A000B11D5D968C91928D9F5F9F73928F90E0B1
:1001B00008958FEF9FEF0895FC01918D828D981720
:1001C00031F0828DE80FF11D858D90E008958FEF5D
:1001D0009FEF0895FC01918D228D892F90E0805C26
:1001E0009F4F821B91098F739927089583E691E0B1
:1001F0000E94EA0021E0892B09F420E0822F089573
:1002000080E090E0892B29F00E94F60081110C9487
:1002100000000895FC01A48DA80FB92FB11DA35AA9
:10022000BF4F2C91848D90E001968F739927848F16
:10023000A689B7892C93A089B1898C918370806439
:100240008C93938D848D981306C00288F389E02DDA
:1002500080818F7D80830895EF92FF920F931F938B
:10026000CF93DF93EC0181E0888F9B8D8C8D981369
:100270001AC0E889F989808185FF15C09FB7F89475
:10028000EE89FF896083E889F989808183708064C1
:1002900080839FBF81E090E0DF91CF911F910F910C
:1002A000FF90EF900895F62E0B8D10E00F5F1F4F1B
:1002B0000F731127E02E8C8D8E110CC00FB607FC2A
:1002C000FACFE889F989808185FFF5CFCE010E94B8
:1002D0000A01F1CFEB8DEC0FFD2FF11DE35AFF4F1B
:1002E000F0829FB7F8940B8FEA89FB898081806246
:1002F000CFCFCF93DF93EC01888D8823B9F0AA8903
:10030000BB89E889F9898C9185FD03C0808186FDD0
:100310000DC00FB607FCF7CF8C9185FFF2CF80811F
:1003200085FFEDCFCE010E940A01E9CFDF91CF9189
:10033000089590E0FC01E458FF4F2491FC01E25540
:10034000FF4F3491FC01E656FF4FE491EE23C9F0D4
:10035000222339F0233001F1A8F4213019F12230A1
:1003600029F1F0E0EE0FFF1FEE58FF4FA591B49179
:100370008FB7F894EC91611126C030953E233C93E1
:100380008FBF08952730A9F02830C9F0243049F7ED
:10039000809180008F7D03C0809180008F77809353
:1003A0008000DFCF84B58F7784BDDBCF84B58F7DB0
:1003B000FBCF8091B0008F778093B000D2CF809137
:1003C000B0008F7DF9CF3E2BDACFCF93DF9390E053
:1003D000FC01E255FF4F249186569F4FFC0184910A
:1003E0008823D1F090E0880F991FFC01E859FF4F56
:1003F000A591B491FC01EE58FF4FC591D4916111C4
:100400000EC09FB7F8948C91E22FE0958E238C93C9
:100410002881E223E8839FBFDF91CF9108958FB7B2
:10042000F894EC91E22BEC938FBFF6CF3FB7F894A2
:100430008091450190914601A0914701B0914801FA
:1004400026B5A89B05C02F3F19F00196A11DB11D2F
:100450003FBFBA2FA92F982F8827BC01CD01620F6B
:10046000711D811D911D42E0660F771F881F991F26
:100470004A95D1F708958F929F92AF92BF92CF92F3
:10048000DF92EF92FF926B017C010E9416024B01FA
:100490005C01C114D104E104F104B9F00E94160218
:1004A000681979098A099B09683E7340810591059D
:1004B00080F321E0C21AD108E108F10888EE880E25
:1004C00083E0981EA11CB11CE4CFFF90EF90DF9059
:1004D000CF90BF90AF909F908F900895FC010190B6
:1004E0000020E9F73197AF01481B590BBC0183E6A7
:1004F00091E00C948C008F929F92AF92BF92CF921A
:10050000DF92EF92FF920F931F93CF93DF93CDB7BC
:10051000DEB7A1970FB6F894DEBF0FBECDBF6C015A
:10052000990FEE08FF08F7FE47C06DE283E691E001
:100530000E942C018C0122273327A9012C193D0987
:100540004E095F0919A2CE0181967C019AE0892E9D
:10055000912CA12CB12CCA01B901A50194010E94D2
:10056000EE07605DF70162937F01211531054105BA
:10057000510589F790E080E0309719F0CF010E9493
:100580006E02080F191F8AE291E00E946E02800F2E
:10059000911FA1960FB6F894DEBF0FBECDBFDF91BD
:1005A000CF911F910F91FF90EF90DF90CF90BF9070
:1005B000AF909F908F900895A701960119A28E0188
:1005C0000F5D1F4F8AE0C82ED12CE12CF12CCA01FF
:1005D000B901A70196010E94EE07605DF8016293E0
:1005E0008F01211531054105510589F7309729F013
:1005F000CF010E946E028C01C6CF10E000E0C3CF95
:100600001F920F920FB60F9211242F933F934F9387
:100610005F936F937F938F939F93AF93BF93EF936A
:10062000FF9383E691E00E940A01FF91EF91BF9151
:10063000AF919F918F917F916F915F914F913F917A
:100640002F910F900FBE0F901F9018951F920F9231
:100650000FB60F9211242F938F939F93EF93FF93D5
:10066000E0917301F09174018081E0917901F09142
:100670007A0182FD1BC0908180917C018F5F8F7316
:1006800020917D01821741F0E0917C01F0E0ED596D
:10069000FE4F958F80937C01FF91EF919F918F91F9
:1006A0002F910F900FBE0F901F9018958081F4CF5F
:1006B0001F920F920FB60F9211242F933F938F9397
:1006C0009F93AF93BF938091410190914201A0917C
:1006D0004301B09144013091400123E0230F2D37B5
:1006E00058F50196A11DB11D209340018093410151
:1006F00090934201A0934301B0934401809145013E
:1007000090914601A0914701B09148010196A11D29
:10071000B11D8093450190934601A0934701B0938A
:100720004801BF91AF919F918F913F912F910F9071
:100730000FBE0F901F90189526E8230F0296A11D5B
:10074000B11DD2CFCF92DF92EF92FF920F931F9302
:10075000E82FF92F05C0015011092109310961F174
:10076000908196239417B9F305C00150110921090E
:10077000310911F1908196239413F7CFC12CD12C1C
:10078000E12CF12C0AC08FEFC81AD80AE80AF80A3F
:100790000C151D052E053F0579F0808186238417F1
:1007A00091F36C2D7D2D8E2D9F2D1F910F91FF901C
:1007B000EF90DF90CF90089560E070E080E090E0EF
:1007C0001F910F91FF90EF90DF90CF900895CF93FE
:1007D000DF93E3E6F1E01382128288EE93E0A0E07B
:1007E000B0E084839583A683B7838CE191E0918305
:1007F000808385EC90E09587848784EC90E09787F0
:10080000868780EC90E0918B808B81EC90E0938BDD
:10081000828B82EC90E0958B848B86EC90E0978BBA
:10082000868B118E128E138E148EC0E0D2E08EE075
:1008300090E09D838C838FE090E09F838E8360E0C7
:100840008EE00E94E50161E08E810E94E501188A38
:1008500087EE93E0A0E0B0E08C879D87AE87BF87EE
:10086000DF91CF910895789484B5826084BD84B57A
:10087000816084BD85B5826085BD85B5816085BD9B
:1008800080916E00816080936E0010928100809153
:1008900081008260809381008091810081608093DB
:1008A0008100809180008160809380008091B10000
:1008B00084608093B1008091B00081608093B0002B
:1008C00080917A00846080937A0080917A008260BF
:1008D00080937A0080917A00816080937A00809181
:1008E0007A00806880937A001092C100E9E4F1E018
:1008F0008AE090E0819391930A9688379105D1F729
:1009000008E111E064E0E62E61E0F62EF701C08117
:10091000F2E0EF0EF11C61E08C2F0E94E50160E037
:100920008C2F0E9499010E151F0581F7E09173012C
:10093000F091740182E08083E0916F01F091700189
:100940001082E0917101F09172018FEC808310921E
:100950007B01E0917701F091780186E08083E0915E
:100960007501F0917601808180618083E09175014D
:10097000F0917601808188608083E0917501F0912B
:100980007601808180688083E0917501F091760125
:1009900080818F7D808361E070E080E090E00E9444
:1009A0003B023AEF832E36E1932EA12CB12C44E684
:1009B000242E312CCC24C394D12C83E691E00E94C8
:1009C000EA00892B09F445C083E691E00E94C80043
:1009D00040910201509103012091000130910101E9
:1009E0008334910509F42AC10CF0E8C08B329105DB
:1009F00009F4FEC08D9709F412C180910201909113
:100A00000301853691050CF42AC13092030120922E
:100A100002018091000190910101853691050CF44D
:100A200025C130920101209200018DE291E00E94E7
:100A30006E0280910201909103010E947B0286E385
:100A400091E00E946E0280910001909101010E944C
:100A50007B02109208021092090210920A02109270
:100A60000B0260E0809106020E94990183E090E011
:100A70000197F1F761E0809106020E94990183E2FB
:100A800090E00197F1F760E0809106020E949901E1
:100A900083E090E00197F1F78091040290910502C4
:100AA0009927FC01E255FF4F6491FC01E656FF4F88
:100AB000E491F0E0EE0FFF1FE057FF4F8591949116
:100AC00000EF19E422E030E0462F0E94A2032B0140
:100AD0003C01411451046104710439F09FEF491A3B
:100AE000590A690A790AEFE07E2240920802509280
:100AF000090260920A0270920B0269E170E080E0E4
:100B000090E00E943B02A4E6B0E0A30192010E94A3
:100B10002F08A50194010E9410083901C9010E9403
:100B20007B0209E411E0CAE0D0E0F80184899589EC
:100B3000861597050CF04BC2CA30D10509F036C2B4
:100B400080915F0190916001009709F096C0C4E028
:100B5000D1E08881229661E00E94990160910201B2
:100B600070910301072E000C880B990B0E943B0229
:100B7000EC16FD0671F704E011E0F80180810E5FCC
:100B80001F4F60E00E949901609100017091010186
:100B9000072E000C880B990B0E943B020C171D07B7
:100BA00061F780E090E0892B09F407CF0E94F600FE
:100BB000882309F402CF0E940000FFCE85349105FE
:100BC00009F446C00CF43FC08D34910509F015CFEF
:100BD0008091610190916201019729F41092620164
:100BE000109261010ACFD0926201C092610105CFDB
:100BF0008091610190916201009751F0019709F095
:100C0000FCCE265F3F4F3093010120930001F5CECB
:100C1000465F5F4F5093030140930201EECE8091F7
:100C2000610190916201009731F0019709F0E5CEE2
:100C30002A503109E8CF4A505109ECCF1092600197
:100C400010925F01DACED0926001C0925F01D5CEE2
:100C500082E090E09093600180935F01CECE97FF99
:100C6000D8CE1092030110920201D3CE97FFDDCEB1
:100C70001092010110920001D8CE8130910509F047
:100C800069C161E08AE00E94990160E08BE00E9406
:100C9000990160E082E00E94990160E084E00E9496
:100CA000990160E083E00E94990160E085E00E9484
:100CB000990160E086E00E94990160E087E00E946F
:100CC000990160E088E00E94990161E089E00E945A
:100CD00099014090020150900301052C000C660818
:100CE0007708C301B2010E943B0260E08AE00E94E3
:100CF000990161E08BE00E94990160E082E00E942E
:100D0000990160E084E00E94990160E083E00E9424
:100D1000990160E085E00E94990160E086E00E9410
:100D2000990160E087E00E94990161E088E00E94FB
:100D3000990160E089E00E949901C301B2010E941B
:100D40003B0260E08AE00E94990160E08BE00E9433
:100D5000990161E082E00E94990160E084E00E94D4
:100D6000990160E083E00E94990160E085E00E94C3
:100D7000990160E086E00E94990161E087E00E94AD
:100D8000990160E088E00E94990160E089E00E949A
:100D90009901C301B2010E943B0260E08AE00E9417
:100DA000990160E08BE00E94990160E082E00E947E
:100DB000990161E084E00E94990160E083E00E9473
:100DC000990160E085E00E94990161E086E00E945F
:100DD000990160E087E00E94990160E088E00E944C
:100DE000990160E089E00E949901C301B2010E946B
:100DF0003B0260E08AE00E94990160E08BE00E9483
:100E0000990160E082E00E94990160E084E00E9424
:100E1000990161E083E00E94990161E085E00E9410
:100E2000990160E086E00E94990160E087E00E94FD
:100E3000990160E088E00E94990160E089E00E94E9
:100E40009901C301B2010E943B0260E08AE00E9466
:100E5000990160E08BE00E94990160E082E00E94CD
:100E6000990161E084E00E94990160E083E00E94C2
:100E7000990160E085E00E94990161E086E00E94AE
:100E8000990160E087E00E94990160E088E00E949B
:100E9000990160E089E00E949901C301B2010E94BA
:100EA0003B0260E08AE00E94990160E08BE00E94D2
:100EB000990161E082E00E94990160E084E00E9473
:100EC000990160E083E00E94990160E085E00E9462
:100ED000990160E086E00E94990161E087E00E944C
:100EE000990160E088E00E94990160E089E00E9439
:100EF0009901C301B2010E943B0260E08AE00E94B6
:100F0000990161E08BE00E94990160E082E00E941B
:100F1000990160E084E00E94990160E083E00E9412
:100F2000990160E085E00E94990160E086E00E94FE
:100F3000990160E087E00E94990161E088E00E94E9
:100F4000990160E089E00E949901C301B2010E9409
:100F50003B0227CE029709F024CE60E08AE00E948F
:100F6000990160E08BE00E94990160E082E00E94BC
:100F7000990160E084E00E94990160E083E00E94B2
:100F8000990160E085E00E94990160E086E00E949E
:100F9000990160E087E00E94990160E088E00E948A
:100FA000990160E089E00E949901FBCDFE01EE0FFE
:100FB000FF1FEC5FFE4F61E080810E949901219745
:100FC00002501109CF3FDC0709F0AFCDEACDFE0199
:100FD000EE0FFF1FEC5FFE4F60E0EECFA1E21A2E96
:100FE000AA1BBB1BFD010DC0AA1FBB1FEE1FFF1FCD
:100FF000A217B307E407F50720F0A21BB30BE40B1D
:10100000F50B661F771F881F991F1A9469F7609563
:101010007095809590959B01AC01BD01CF0108951D
:10102000052E97FB1EF400940E94270857FD07D059
:101030000E94EE0707FC03D04EF40C94270850954D
:101040004095309521953F4F4F4F5F4F08959095B4
:101050008095709561957F4F8F4F9F4F08950E94A7
:101060004008A59F900DB49F900DA49F800D911DE9
:1010700011240895EE0FFF1F0590F491E02D0994BF
:10108000A29FB001B39FC001A39F700D811D1124C9
:10109000911DB29F700D811D1124911D0895F8942A
:1010A000FFCF1E001E000200030004000500060022
:1010B0000700080009000A000B00000000002C01D6
:1010C0008C00B9007901EA00C800DC000D0A006458
:1010D000656C6179313A200064656C6179323A203F
:0210E00000000E
:107E0000112484B714BE81FFF0D085E080938100F7
:107E100082E08093C00088E18093C10086E0809377
:107E2000C20080E18093C4008EE0C9D0259A86E02C
:107E300020E33CEF91E0309385002093840096BBD3
:107E4000B09BFECF1D9AA8958150A9F7CC24DD24C4
:107E500088248394B5E0AB2EA1E19A2EF3E0BF2EE7
:107E6000A2D0813461F49FD0082FAFD0023811F036
:107E7000013811F484E001C083E08DD089C08234E0
:107E800011F484E103C0853419F485E0A6D080C0E4
:107E9000853579F488D0E82EFF2485D0082F10E0AE
:107EA000102F00270E291F29000F111F8ED06801E7
:107EB0006FC0863521F484E090D080E0DECF843638
:107EC00009F040C070D06FD0082F6DD080E0C81688
:107ED00080E7D80618F4F601B7BEE895C0E0D1E017
:107EE00062D089930C17E1F7F0E0CF16F0E7DF06D8
:107EF00018F0F601B7BEE89568D007B600FCFDCFD4
:107F0000A601A0E0B1E02C9130E011968C91119780
:107F100090E0982F8827822B932B1296FA010C0160
:107F200087BEE89511244E5F5F4FF1E0A038BF0790
:107F300051F7F601A7BEE89507B600FCFDCF97BE46
:107F4000E89526C08437B1F42ED02DD0F82E2BD052
:107F50003CD0F601EF2C8F010F5F1F4F84911BD097
:107F6000EA94F801C1F70894C11CD11CFA94CF0C13
:107F7000D11C0EC0853739F428D08EE10CD085E9AC
:107F80000AD08FE07ACF813511F488E018D01DD067
:107F900080E101D065CF982F8091C00085FFFCCF94
:107FA0009093C60008958091C00087FFFCCF809118
:107FB000C00084FD01C0A8958091C6000895E0E648
:107FC000F0E098E1908380830895EDDF803219F02E
:107FD00088E0F5DFFFCF84E1DECF1F93182FE3DFCA
:107FE0001150E9F7F2DF1F91089580E0E8DFEE27F6
:047FF000FF270994CA
:027FFE00040479
:00000001FF
